00037071620120702
001000000019910923120000000000199109231200000000000000Ukendt Myndighed                                                                                                                                                                                      Ukendt Myndighed                                                                                                                                                     000
001000139020110819105772269735201107010000000000000000Cpr-Kontoret        Cpr-Kontoret                      Finsensvej 15                     2000 Frederiksberg                                                                                    72269742Cpr-Kontoret                                                cpr@cpr.dk                                                                                               000
001000239020081113092572269735200811130000000000000000Cpr-Kontoret (002)  Cpr-Kontoret                                                                                                                                                              72269742Cpr-Kontoret (002)                                          cpr@cpr.dk                                                                                               000
001000307020081113092572269735200811130000000000000000Cpr-Kontoret (003)  Cpr-Kontoret                                                                                                                                                              72269742Cpr-Kontoret (003)                                                                                                                                                   000
001000407020081113093972269735200811130000000000000000Cpr-Kontoret (004)  Cpr-Kontoret                                                                                                                                                              72269742Cpr-Kontoret (004)                                                                                                                                                   000
001000500020080219113600000000199107301200000000000000Kirkelig Vielse     Cpr-Kontoret                                                                                                                                                                      Kirkelig Vielse                                                                                                                                                      000
001000600020080219113600000000199107301200000000000000Borgerlig Vielse    Cpr-Kontoret                                                                                                                                                                      Borgerlig Vielse                                                                                                                                                     000
001000707020081113094072269735200811130000000000000000Cpr-Kontoret (007)  Cpr-Kontoret                                                                                                                                                              72269742Cpr-Kontoret (007)                                                                                                                                                   000
001000907020080219113700000000199107301200000000000000Kommune Ukendt      Cpr-Kontoret                                                                                                                                                                      Kommune Ukendt                                                                                                                                                       000
001001007019930616100600000000199010121200000000000000SømandskattekontoretSømandsskattekontoret                                                                                                                                                             Sømandskattekontoret                                                                                                                                                 000
001001107020070124134435297300199107221200000000000000SKAT                SKAT                              Østbanegade 123                   2100 København Ø                                                                                      35434720SKAT                                                                                                                                                                 000
001001207020070124134548204820199010121200000000000000ATP                 Arbejdsmarkedets Tillægspension   Postbox 321                                                         3400 Hillerød                                                               ATP                                                                                                                                                                  000
001001414020040225145800000000200402250000000000000000Valgkontoret                                                                                                                                                                                          Valgkontoret                                                                                                                                                         000
001001616020010317120000000000200103171200000000000000Justitsministeriet                                                                                                                                                                                    Justitsministeriet                                                                                                                                                   000
001001717020071004104533954270200710040000000000000000Indfødsretkontoret  Indfødsretkontoret                Holbergsgade 6                    1057 København K                                                                                      33123036Indfødsretkontoret                                                                                                                                                   000
001001818020101115081000000000200103171200000000000000Udlændingeservice                                                                                                                                                                                     Udlændingeservice                                                                                                                                                    000
001001907020070124134672269000199010121200000000000000Administrativ       CPR-kontoret                      Slotsholmsgade 10-12              1216 København K                                                                                      72269001Administrativt Personnummer                                                                                                                                          000
001002075220080220145000000000199002261200200802010000Sjælland                                                                                                                                                                                              Sjælland Landsdel                                                                                                                                                    000
001002175220080220094000000000200801010000000000000000Københavns omegn                                                                                                                                                                                      Københavns omegn landsdel                                                                                                                                            000
001002275220080219115600000000199002261200000000000000Bornholm Landsdel                                                                                                                                                                                     Bornholm Landsdel                                                                                                                                                    000
001002375220080220094000000000200801010000000000000000Nordsjælland                                                                                                                                                                                          Nordsjælland landsdel                                                                                                                                                000
001002475220080220102400000000199002261200000000000000Fyn                                                                                                                                                                                                   Fyn Landsdel                                                                                                                                                         000
001002575220080220094100000000200801010000000000000000Østsjælland                                                                                                                                                                                           Østsjælland landsdel                                                                                                                                                 000
001002675220080220102400000000199002261200000000000000Sydjylland                                                                                                                                                                                            Sydjylland Landsdel                                                                                                                                                  000
001002775220080220094200000000200801010000000000000000Vest- og Sydsjælland                                                                                                                                                                                  Vest- og Sydsjælland landsdel                                                                                                                                        000
001002875220080219115800000000199002261200000000000000Grønland Landsdel                                                                                                                                                                                     Grønland Landsdel                                                                                                                                                    000
001002975220080220094300000000200801010000000000000000Østjylland                                                                                                                                                                                            Østjylland landsdel                                                                                                                                                  000
001003075220080219115900000000199002261200000000000000Specielle Kommuner                                                                                                                                                                                    Specielle Kommuner Landsdel                                                                                                                                          000
001003175220080220094400000000200801010000000000000000Vestjylland                                                                                                                                                                                           Vestjylland landsdel                                                                                                                                                 000
001003275220080220094400000000200801010000000000000000Nordjylland                                                                                                                                                                                           Nordjylland Landsdel                                                                                                                                                 000
001003375220080220144500000000200801010000000000000000København by                                                                                                                                                                                          København by Landsdel                                                                                                                                                000
001003975020060201082000000000200602010000000000000000Landsdel ukendt                                                                                                                                                                                       Landsdel ukendt                                                                                                                                                      000
001004141020010317120000000000200103171200000000000000Borger                                                                                                                                                                                                Borger                                                                                                                                                               000
001004242020060601115400000000200605010000000000000000Borger direkte                                                                                                                                                                                        Borger Direkte                                                                                                                                                       000
001004343020060418120000000000200604181200000000000000Kunder                                                                                                                                                                                                Kunder                                                                                                                                                               000
001007171020010317120000000000200103171200000000000000Kirkeministeriet                                                                                                                                                                                      Kirkeministeriet                                                                                                                                                     000
001008050220061023124300000000199010021200000000000000Csc Datavej         CSC                               Datavej 30                        3460 Birkerød                                                                                                 CSC Datavej                                                                                                                                                          000
001008150220060131144944601000199001171200000000000000KMD Odense          KMD                               Niels Bohrs Alle 185              5220 Odense SØ                                                                                        44607870Odense Centralen                                                                                                                                                     000
001008250220001213132644601000199001171200000000000000Kmd Valby           Kommunedata A/S                   Ottiliavej 1                      2500 Valby                                                                                            44607870Kbhs.Koms.Edb-Centr                                                                                                                                                  000
001008450220001213132744601000199001171200000000000000Kmd Aalborg         Kommunedata A/S                   Hadsundvej 184                    9210 Aalborg SØ                                                                                       44607870Aalborg Centralen                                                                                                                                                    000
001008550220001213132944601000199001171200000000000000Kmd Ballerup        Kommunedata A/S                   Ballerup-Centralen                Lautrupparken 40                  2750 Ballerup                                                       44607870Ballerup Centralen                                                                                                                                                   000
001008650220110125125244601000199001171200000000000000Kmd Aarhus          Kommunedata A/S                   Spanien 19                        8100 Aarhus C                                                                                         44607870Aarhus Koms.Edb-Centr                                                                                                                                                000
001009050220060131144900000000199010021200000000000000CSC                 CSC                               Datavej 30                        3460 Birkerød                                                                                                 CSC                                                                                                                                                                  000
001009550020060201082300000000200602010000000000000000EDB-central ukendt                                                                                                                                                                                    EDB-central ukendt                                                                                                                                                   000
001009899020011108140600000000200103170000000000000000Overført fra KIS                                                                                                                                                                                      Overført fra Kirkens Informations System KIS                                                                                                                         000
001009999020010317120000000000200103171200000000000000Maskinelt regelsæt                                                                                                                                                                                    Maskinelt regelsæt                                                                                                                                                   000
001010007020120111135370111213201201010000000000000000UDK                 Udbetaling Danmark                Kongens Vænge 8                   3400 Hillerød                                                                                                                                                                                                                                                                      000
001010105020101006084933663366201009210000000000000000København           Københavns Kommune                Folkeregistret                    Nyropsgade 1                      1602 København V                                                    33667186København                                                   borgerservice@kk.dk                                                                                      000
001010298020010317120033663366200103171200000000000000København 102       Københavns kommune 102            Folkeregistret                    Dahlerupsgade 6                   1640 København V                                                    33667186København 102                                                                                                                                                        000
001014705020100201124638212121199006291200000000000000Frederiksberg       Frederiksberg Kommune             BorgerServiceCenter               Folkeregister                     Frederiksberg Rådhus              2000 Frederiksberg                38213739Frederiksberg                                               borgerservice@frederiksberg.dk                                                                           000
001015105020060623151044772000199102061200000000000000Ballerup            Ballerup Kommune                  Folkeregistret                    Hold-An Vej 7                     2750 Ballerup                                                       44772719Ballerup                                                    balkom@balk.dk                                                                                           000
001015305020111010093643282828199101291200000000000000Brøndby             Brøndby Kommune                   Folkeregistret                    Park Alle 160                     2605 Brøndby                                                        43282352Brøndby                                                     brondby@brondby.dk                                                                                       000
001015505020060623151232890100199106251200000000000000Dragør              Dragør Kommune                    Folkeregistret                    Kirkevej 7                        2791 Dragør                                                         32530039Dragør                                                      dragoer@dragoer.dk                                                                                       000
001015705020111010101339980000199101071200000000000000Gentofte            Gentofte Kommune                  Folkeregistret                    Bernstorffsvej 161                2920 Charlottenlund                                                 39980010Gentofte                                                    gentofte@gentofte.dk                                                                                     000
001015905020060623151339575000199006291200000000000000Gladsaxe            Gladsaxe Kommune                  Folkeregistret                    Rådhus Alle                       2860 Søborg                                                         39664711Gladsaxe                                                    kommunen@gladsaxe.dk                                                                                     000
001016105020060623151443236100199005211200000000000000Glostrup            Glostrup Kommune                  Folkeregistret                    Rådhusparken 2                    2600 Glostrup                                                       43431624Glostrup                                                    glostrup.kommune@glostrup.dk                                                                             000
001016305020111010102944527000199107221200000000000000Herlev              Herlev Kommune                    Folkeregistret                    Herlev Bygade 90                  2730 Herlev                                                         44532972Herlev                                                      info@herlev.dk                                                                                           000
001016505020060623151543686868199006291200000000000000Albertslund         Albertslund Kommune               Folkeregistret                    Nordmarks Alle 1                  2620 Albertslund                                                    43686928Albertslund                                                 albertslund@albertslund.dk                                                                               000
001016705020110902131036393639200805080000000000000000Hvidovre            Hvidovre Kommune                  Folkeregistret                    Hvidovrevej 278                   2650 Hvidovre                                                       36393670Hvidovre                                                    borgerservicecenter@hvidovre.dk                                                                          000
001016905020060623151643591000199105281200000000000000Høje-Taastrup       Høje-Taastrup Kommune             Folkeregistret                    Bygaden 2                         Postboks 14                       2630 Taastrup                     43591002Høje-Taastrup                                               kommune@htk.dk                                                                                           000
001017105020061024083000000000199006291200200612220830Ledøje-Smørum                                                                                                                                                                                         Ledøje-Smørum                                               kommunen@lskom.dk                                                                                        000
001017305020060623151745973000199107101200000000000000Lyngby-Taarbæk      Lyngby-Taarbæk Kommune            Folkeregistret                    Toftebæksvej 12                   2800 Kgs.Lyngby                                                     45973058Lyngby-Taarbæk                                              lyngby@ltk.dk                                                                                            000
001017505020100413135936377000201004130000000000000000Rødovre             Rødovre Kommune                   Folkeregistret                    Rødovre Parkvej 150               2610 Rødovre                                                        36377757Rødovre                                                     rk@rk.dk                                                                                                 000
001018105020061024083300000000199006291200200612220833Søllerød                                                                                                                                                                                              Søllerød                                                    kommunen@sollerod.dk                                                                                     000
001018305020090624101743577575199101021200000000000000Ishøj               Ishøj Kommune                     Folkeregistret                    Ishøj Store Torv 20               2635 Ishøj                                                          43577283Ishøj                                                       ishojkommune@ishoj.dk                                                                                    000
001018505020060623152032471111199104101200000000000000Tårnby              Tårnby Kommune                    Folkeregistret                    Amager Landevej 76                2770 Kastrup                                                        32471299Tårnby                                                      kommunen@taarnby.dk                                                                                      000
001018705020111010141147974000199006291200000000000000Vallensbæk          Vallensbæk Kommune                Folkeregistret                    Vallensbæk Stationstorv 100       2665 Vallensbæk Strand                                              47974422Vallensbæk                                                  kommune@vallensbaek.dk                                                                                   000
001018905020061024083700000000199012171200200612220836Værløse                                                                                                                                                                                               Værløse                                                     post@vaerloese.dk                                                                                        000
001019005020111010100972354000201004210000000000000000Furesø              Furesø Kommune                    Borgerservice                     Rådhustorvet 2                    3520 Farum                                                          72354010Furesø                                                      furesoe@furesoe.dk                                                                                       000
001020105020060626091048100100199012191200000000000000Allerød             Allerød Kommune                   Folkeregistret                    Bjarkesvej 2                      3450 Allerød                                                        48140208Allerød                                                     kommunen@alleroed.dk                                                                                     000
001020505020061024083900000000199005211200200612220838Birkerød                                                                                                                                                                                              Birkerød                                                    raadhus@birkeroedkom.dk                                                                                  000
001020705020061024083900000000199005211200200612220839Farum                                                                                                                                                                                                 Farum                                                       farum@farum.dk                                                                                           000
001020805020080220103700000000199101021200200612220000Fredensborg-Humlebæk                                                                                                                                                                                  Fredensborg-Humlebæk                                        fhkom@fhkom.dk                                                                                           000
001020905020070112111500000000199006291200200612220840Gl. Frederikssund                                                                                                                                                                                     Frederikssund (Gammel)                                      samsek@frederikssund-kom.dk                                                                              000
001021005020070612142972565000200701010000000000000000Fredensborg         Fredensborg Kommune               Egevangen 3 B                     2980 Kokkedal                                                                                         72565100Fredensborg                                                 fredensborg@fredensborg.dk                                                                               000
001021105020061024084200000000199006291200200612220842Frederiksværk                                                                                                                                                                                         Frederiksværk                                               bormail@frederiksvaerk.dk                                                                                000
001021305020061024084300000000199006291200200612220842Græsted-Gilleleje                                                                                                                                                                                     Græsted-Gilleleje                                           borgerservice@ggk.dk                                                                                     000
001021505020061024084300000000199101021200200612220843Helsinge                                                                                                                                                                                              Helsinge                                                    byraadssekretariatet@helsinge-kommune.dk                                                                 000
001021705020111010102749282828199006291200000000000000Helsingør           Helsingør Kommune                 Borgerservice                     Birkedalsvej 27                   3000 Helsingør                                                      49283109Helsingør                                                   mail@helsingor.dk                                                                                        000
001021905020080123120672320000200801230000000000000000Hillerød            Hillerød Kommune                  Folkeregistret                    Trollesmindealle 27               3400 Hillerød                                                       72323210Hillerød                                                    hillerod@hillerod.dk                                                                                     000
001022105020061024084500000000199101031200200612220845Hundested                                                                                                                                                                                             Hundested                                                   post@hundested.dk                                                                                        000
001022305020070906095348490000200709060000000000000000Hørsholm            Hørsholm Kommune                  Folkeregistret                    Ådalsparkvej 2                    Postboks 245                      2970 Hørsholm                     48491061Hørsholm                                                    kommunen@horsholm.dk                                                                                     000
001022505020061024085200000000199105141200200612220851Jægerspris                                                                                                                                                                                            Jægerspris                                                  jpkom@jpkom.dk                                                                                           000
001022705020061024085200000000199008161200200612220852Karlebo                                                                                                                                                                                               Karlebo                                                     karlebokommune@karlebo.dk                                                                                000
001022905020061024085400000000199005211200200612220852Skibby                                                                                                                                                                                                Skibby                                                      skibby@skibby-kommune.dk                                                                                 000
001023005020100803075246110000200509140000000000000000Rudersdal           Rudersdal Kommune                 Øverødvej 2                       2840 Holte                                                                                            46110011Rudersdal                                                   rudersdal@rudersdal.dk                                                                                   000
001023105020061024085900000000199005211200200612220854Skævinge                                                                                                                                                                                              Skævinge                                                    kommunen@skaevinge.dk                                                                                    000
001023305020061024085900000000199006291200200612220859Slangerup                                                                                                                                                                                             Slangerup                                                   kommune@slangerupkomm.dk                                                                                 000
001023505020061024090000000000199005211200200612220859Stenløse                                                                                                                                                                                              Stenløse                                                    post@stenlose.dk                                                                                         000
001023705020061024090000000000200201010000200612220900Ølstykke                                                                                                                                                                                              Ølstykke                                                    kommune@oelstykke.dk                                                                                     000
001024005020090817131272596000200509150000000000000000Egedal              Egedal Kommune                    Rådhustorvet 2                    3660 Stenløse                                                                                         72596028Egedal                                                      kommune@egekom.dk                                                                                        000
001025005020120118123447351000200509140000000000000000Frederikssund       Frederikssund Kommune             Torvet 2                          3600 Frederikssund                                                                                    47351099Frederikssund                                               borgerservice@frederikssund.dk                                                                           000
001025105020061024111300000000199006291200200612221112Bramsnæs                                                                                                                                                                                              Bramsnæs                                                    post@bramsnaes.dk                                                                                        000
001025305020060626094243979797199009121200000000000000Greve               Greve Kommune                     Rådhusholmen 10                   2670 Greve                                                                                            43979090Greve                                                       raadhus@greve.dk                                                                                         000
001025505020061024112200000000199005211200200612221121Gundsø                                                                                                                                                                                                Gundsø                                                      post@gundsoe.dk                                                                                          000
001025705020061024112200000000199005211200200612221122Hvalsø                                                                                                                                                                                                Hvalsø                                                      raadhus@hvalsoe.dk                                                                                       000
001025905020090108112156676767199101021200000000000000Køge                Køge Kommune                      Folkeregistret                    Torvet 1                          4600 Køge                                                           56655446Køge                                                        raadhus@koege.dk                                                                                         000
001026005020110518125847784000200509150000000000000000Halsnæs             Halsnæs Kommune                   Rådhuspladsen 1                   3300 Frederiksværk                                                                                    47784099Halsnæs                                                     mail@halsnaes.dk                                                                                         000
001026105020070112112700000000199006291200200612221124Gl. Lejre                                                                                                                                                                                             Lejre (Gammel)                                              kommune@lejre.dk                                                                                         000
001026305020061024112500000000199101021200200612221125Ramsø                                                                                                                                                                                                 Ramsø                                                       post@ramsoe.dk                                                                                           000
001026505020120217104046313008201202170000000000000000Roskilde            Roskilde Kommune                  Borgerservice                     Stændertorvet 1                   4000 Roskilde                                                       46314778Roskilde                                                    borgerservice@roskilde.dk                                                                                000
001026705020061024112600000000199101021200200612221126Skovbo                                                                                                                                                                                                Skovbo                                                      skovbo.kommune@skovbo.dk                                                                                 000
001026905020060626094656182000199101041200000000000000Solrød              Solrød Kommune                    Folkeregistret                    Solrød Center 1                   2680 Solrød Strand                                                  56182020Solrød                                                      kommune@solrod.dk                                                                                        000
001027005020111010101772496000200509150000000000000000Gribskov            Gribskov Kommune                  Rådhusvej 3                       3200 Helsinge                                                                                         48777675Gribskov                                                    borgerservice@gribskov.dk                                                                                000
001027105020061024112900000000199006291200200612221128Vallø                                                                                                                                                                                                 Vallø                                                       valloe@valloe.dk                                                                                         000
001030105020061024112900000000199101021200200612221129Bjergsted                                                                                                                                                                                             Bjergsted                                                   bjergsted@bjergsted.dk                                                                                   000
001030305020061024113000000000199005211200200612221129Dianalund                                                                                                                                                                                             Dianalund                                                   kommune@dianalund.dk                                                                                     000
001030505020061024113000000000199005211200200612221130Dragsholm                                                                                                                                                                                             Dragsholm                                                   raadhus@dragsholm.dk                                                                                     000
001030605020111010132159666666200509120000000000000000Odsherred           Odsherred Kommune                 Rådhuset                          Nyvej 22                          4573 Højby                                                          59666699Odsherred                                                   kommune@odsherred.dk                                                                                     000
001030705020061024113100000000199006291200200612221131Fuglebjerg                                                                                                                                                                                            Fuglebjerg                                                  kommune@fuglebjerg.dk                                                                                    000
001030905020061024113100000000199012191200200612221131Gørlev                                                                                                                                                                                                Gørlev                                                      goerlev@goerlev-kom.dk                                                                                   000
001031105020061024113200000000199101021200200612221131Hashøj                                                                                                                                                                                                Hashøj                                                      hashoej@hashoej.dk                                                                                       000
001031305020061024113200000000199101021200200612221132Haslev                                                                                                                                                                                                Haslev                                                      haslev@haslev.dk                                                                                         000
001031505020070112111900000000199005211200200612221132Gl. Holbæk                                                                                                                                                                                            Holbæk (Gammel)                                             holbkom@holbkom.dk                                                                                       000
001031605020110201121872363636201101310000000000000000Holbæk              HoKo                              Postboks 90                       4300 Holbæk                                                                                           59444770Holbæk                                                      post@holb.dk                                                                                             000
001031705020061024113500000000199101021200200612221134Hvidebæk                                                                                                                                                                                              Hvidebæk                                                    hv@hvidebaek.dk                                                                                          000
001031905020061024113600000000199006291200200612221135Høng                                                                                                                                                                                                  Høng                                                        kom@hoeng.dk                                                                                             000
001032005020111010095556203000200509120000000000000000Faxe                Faxe Kommune                      Rådhuset                          Frederiksgade 9                   4690 Haslev                                                         56203001Faxe                                                        kommunen@faxekommune.dk                                                                                  000
001032105020061024113700000000199005211200200612221136Jernløse                                                                                                                                                                                              Jernløse                                                    raadhus@jernloese.dk                                                                                     000
001032305020070112112600000000199006291200200612221137Gl. Kalundborg                                                                                                                                                                                        Kalundborg (Gammel)                                         kalundborgkommune@kalundborg.dk                                                                          000
001032505020061024113700000000199006291200200612221137Korsør                                                                                                                                                                                                Korsør                                                      korsoer@korsoerkom.dk                                                                                    000
001032605020111010124759534400200809220000000000000000Kalundborg          Kalundborg Kommune                Klosterparkvej 7                  4400 Kalundborg                                                                                       59534411Kalundborg                                                  kalundborg@kalundborg.dk                                                                                 000
001032705020061024113800000000199005211200200612221138Nykøbing-Rørvig                                                                                                                                                                                       Nykøbing-Rørvig                                             raadhus@nrk.dk                                                                                           000
001032905020070906101557626262200709060000000000000000Ringsted            Ringsted Kommune                  Folkeregistret                    Nørregade 100                     4100 Ringsted                                                       57626061Ringsted                                                    ringsted@ringsted.dk                                                                                     000
001033005020090618095158573600200703070000000000000000Slagelse            Slagelse Kommune                  Rådhuspladsen 11                  4200 Slagelse                                                                                         58529987Slagelse                                                    slagelse@slagelse.dk                                                                                     000
001033105020061025074000000000199006291200200612220739Skælskør                                                                                                                                                                                              Skælskør                                                    kommune@skaelskoer.dk                                                                                    000
001033305020070112113100000000199101021200200612220740Gl. Slagelse                                                                                                                                                                                          Slagelse (Gammel)                                           nyslagelse@nyslagelse.dk                                                                                 000
001033505020070112113100000000199101021200200612220741Gl. Sorø                                                                                                                                                                                              Sorø (Gammel)                                               soroekom@soroe.dk                                                                                        000
001033605020120306132656575757201203060000000000000000Stevns              Stevns Kommune                    Rådhuspladsen 4                   Postboks 83                       4660 Store Heddinge                                                         Stevns                                                      stevns@stevns.dk                                                                                         000
001033705020061025074400000000199008301200200612220744Stenlille                                                                                                                                                                                             Stenlille                                                   post@stenlille.dk                                                                                        000
001033905020061025074900000000199101021200200612220744Svinninge                                                                                                                                                                                             Svinninge                                                   svinningekommune@svinninge.dk                                                                            000
001034005020111010133257876000200509150000000000000000Sorø                Sorø Kommune                      Rådhusvej 8                       4180 Sorø                                                                                             57870385Sorø                                                        soroekom@soroe.dk                                                                                        000
001034105020061025075000000000199010231200200612220750Tornved                                                                                                                                                                                               Tornved                                                     info@tornved.dk                                                                                          000
001034305020061025075100000000199007031200200612220750Trundholm                                                                                                                                                                                             Trundholm                                                   trundholm@trundholm.dk                                                                                   000
001034505020061025075100000000199108141200200612220751Tølløse                                                                                                                                                                                               Tølløse                                                     raadhuset@tollose.dk                                                                                     000
001035005020080808120246464646200808080000000000000000Lejre               Lejre Kommune                     Administrationsbygningen          Møllebjergvej 4                   4330 Hvalsø                                                         46464615Lejre                                                       post@lejre.dk                                                                                            000
001035105020070112111400000000199005211200200612220752Gl. Fakse                                                                                                                                                                                             Fakse (Gammel)                                              kommunen@fakse.dk                                                                                        000
001035305020061025075400000000199010011200200612220752Fladså                                                                                                                                                                                                Fladså                                                      kommune@fladsaa.dk                                                                                       000
001035505020061025075500000000199006291200200612220754Holeby                                                                                                                                                                                                Holeby                                                      holeby-kommune@holeby.dk                                                                                 000
001035705020061025075500000000199006291200200612220755Holmegaard                                                                                                                                                                                            Holmegaard                                                  raadhus@holmegaard.dk                                                                                    000
001035905020061025075600000000199101021200200612220755Højreby                                                                                                                                                                                               Højreby                                                     hoejreby@hoejrebykom.dk                                                                                  000
001036005020111010130754676767200509140000000000000000Lolland             Lolland Kommune                   Jernbanegade 7                    4930 Maribo                                                                                           54676768Lolland                                                     lolland@lolland.dk                                                                                       000
001036105020061025075700000000199105281200200612220756Langebæk                                                                                                                                                                                              Langebæk                                                    raadhuset@langebaek.dk                                                                                   000
001036305020061025075700000000199006291200200612220757Maribo                                                                                                                                                                                                Maribo                                                      maribo.kommune@maribo.dk                                                                                 000
001036505020061025075700000000199005211200200612220757Møn                                                                                                                                                                                                   Møn                                                         skr@moenkom.dk                                                                                           000
001036705020061025075800000000199105301200200612220757Nakskov                                                                                                                                                                                               Nakskov                                                     nakskov@nakskov.dk                                                                                       000
001036905020061025075800000000199103111200200612220758Nykøbing F                                                                                                                                                                                            Nykøbing F                                                  post@nyk-f-kom.dk                                                                                        000
001037005020080207125055885588200802070000000000000000Næstved             Næstved Kommune                   Rådhuset                          Teatergade 8                      4700 Næstved                                                        55885059Næstved                                                     borger@naestved.dk                                                                                       000
001037105020061025075900000000199006291200200612220759Nysted                                                                                                                                                                                                Nysted                                                      nysted@nysted.dk                                                                                         000
001037305020070112112900000000199006291200200612220759Gl. Næstved                                                                                                                                                                                           Næstved (Gammel)                                            slu-sekr@naeskom.dk                                                                                      000
001037505020061025080100000000199006291200200612220800Nørre Alslev                                                                                                                                                                                          Nørre Alslev                                                kommunen@norrealslev.dk                                                                                  000
001037605020110125082154731000200509120000000000000000Guldborgsund        Guldborgsund Kommune              Rådhuset                          4800 Nykøbing F                                                                                       54731020Guldborgsund                                                kommunen@guldborgsund.dk                                                                                 000
001037705020061025080200000000199101021200200612220801Præstø                                                                                                                                                                                                Præstø                                                      praestokommune@praesto.dk                                                                                000
001037905020061025080200000000199005211200200612220802Ravnsborg                                                                                                                                                                                             Ravnsborg                                                   ravnsborg@ravnsborg.dk                                                                                   000
001038105020061025080200000000199101021200200612220802Rudbjerg                                                                                                                                                                                              Rudbjerg                                                    rudbjerg@rudbjerg.dk                                                                                     000
001038305020061025080300000000199101021200200612220802Rødby                                                                                                                                                                                                 Rødby                                                       rodby@rodby.dk                                                                                           000
001038505020061025080300000000199006291200200612220803Rønnede                                                                                                                                                                                               Rønnede                                                     kommune@roennede.dk                                                                                      000
001038705020061025080400000000199005211200200612220803Sakskøbing                                                                                                                                                                                            Sakskøbing                                                  kommunen@sakskoebing.dk                                                                                  000
001038905020070112113200000000199005211200200612220804Gl. Stevns                                                                                                                                                                                            Stevns (Gammel)                                             stevns@stevns.dk                                                                                         000
001039005020111010141655363636200509150000000000000000Vordingborg         Vordingborg Kommune               Valdemarsgade 43                  4760 Vordingborg                                                                                      55353346Vordingborg                                                 post@vordingborg.dk                                                                                      000
001039105020061025082800000000199005211200200612220805Stubbekøbing                                                                                                                                                                                          Stubbekøbing                                                raadhuset@stubbekoebingkom.dk                                                                            000
001039305020061025082900000000199006291200200612220828Suså                                                                                                                                                                                                  Suså                                                        susaa@susaa.dk                                                                                           000
001039505020061025082900000000199006291200200612220829Sydfalster                                                                                                                                                                                            Sydfalster                                                  post@sydfalster.dk                                                                                       000
001039705020070112113400000000199011021200200612220829Gl. Vordingborg                                                                                                                                                                                       Vordingborg (Gammel)                                        forv@vordbkom.dk                                                                                         000
001040005020061025083156920000200109140920000000000000Bornholm            Bornholms Kommune                 Postboks 190                      3700 Rønne                                                                                            56920001Bornholm                                                    post@brk.dk                                                                                              000
001040105020060830150700000000199108151200200312310000Allinge-Gudhjem                                                                                                                                                                                       Allinge-Gudhjem                                                                                                                                                      000
001040305020060830150700000000199005211200200312310000Hasle                                                                                                                                                                                                 Hasle                                                                                                                                                                000
001040505020060830150700000000200208270000200312310000Nexø                                                                                                                                                                                                  Nexø                                                                                                                                                                 000
001040705020060830150300000000199106061200200312310000Rønne                                                                                                                                                                                                 Rønne                                                                                                                                                                000
001040905020060830150700000000199108151200200312310000Aakirkeby                                                                                                                                                                                             Aakirkeby                                                                                                                                                            000
001041005020080325085988885500200509150000000000000000Middelfart          Middelfart Kommune                Rådhuset                          Østergade                         5500 Middelfart                                                     88885501Middelfart                                                  middelfart@middelfart.dk                                                                                 000
001041105020061025083656920000199005211200000000000000Christiansø         Bornholms kommune                 Postboks 190                      3700 Rønne                                                                                            56920001Christiansø                                                                                                                                                          000
001042005020110106131664747474201101060000000000000000Assens              Assens Kommune                    Rådhus Allé 5                     5610 Assens                                                                                           64715780Assens                                                      Assens@Assens.dk                                                                                         000
001042105020070112110800000000199101041200200612220842Gl. Assens                                                                                                                                                                                            Assens (Gammel)                                             assens@assens.dk                                                                                         000
001042305020061025084300000000199101021200200612220843Bogense                                                                                                                                                                                               Bogense                                                     bogense@bogense.dk                                                                                       000
001042505020061025084400000000199005211200200612220843Broby                                                                                                                                                                                                 Broby                                                       broby@broby.dk                                                                                           000
001042705020061025084400000000199006291200200612220844Egebjerg                                                                                                                                                                                              Egebjerg                                                    egebjerg@egebjerg.dk                                                                                     000
001042905020061025084500000000199006291200200612220844Ejby                                                                                                                                                                                                  Ejby                                                        info@ejby.dk                                                                                             000
001043005020081210134972530530200509120000000000000000Faaborg-Midtfyn     Faaborg-Midtfyn Kommune           Ringe Rådhus                      Tinghøj Alle 2                    5750 Ringe                                                          72530151Faaborg-Midtfyn                                             fmk@faaborgmidtfyn.dk                                                                                    000
001043105020070112111400000000199104221200200612220846Gl. Faaborg                                                                                                                                                                                           Faaborg (Gammel)                                            info@faaborg.dk                                                                                          000
001043305020061025084700000000199006291200200612220846Glamsbjerg                                                                                                                                                                                            Glamsbjerg                                                  raadhus@glamsbjerg.dk                                                                                    000
001043505020061025084700000000199101021200200612220847Gudme                                                                                                                                                                                                 Gudme                                                       gudme@gudme.dk                                                                                           000
001043705020061025084700000000199005211200200612220847Haarby                                                                                                                                                                                                Hårby                                                       haarby-kommune@haarby.dk                                                                                 000
001043905020070112112600000000199101021200200612220847Gl. Kerteminde                                                                                                                                                                                        Kerteminde (Gammel)                                         kommune@kerteminde.dk                                                                                    000
001044005020111010125165151515200509120000000000000000Kerteminde          Kerteminde Kommune                Rådhuset                          5300 Kerteminde                                                                                               Kerteminde                                                  kommune@kerteminde.dk                                                                                    000
001044105020061025084900000000199006291200200612220848Langeskov                                                                                                                                                                                             Langeskov                                                   post@langeskov.dk                                                                                        000
001044305020061025072800000000199005211200200512310000Marstal                                                                                                                                                                                               Marstal                                                     marstalkommune@marstalkommune.dk                                                                         000
001044505020070112112700000000199108301200200612220849Gl. Middelfart                                                                                                                                                                                        Middelfart (Gammel)                                         middelfart@middelfart.dk                                                                                 000
001044705020061025085000000000199006291200200612220850Munkebo                                                                                                                                                                                               Munkebo                                                     munkebo@munkebo.dk                                                                                       000
001044905020070112112800000000199005211200200612220850Gl. Nyborg                                                                                                                                                                                            Nyborg (Gammel)                                             kommune@nyborg.dk                                                                                        000
001045005020111010131763337000200509150000000000000000Nyborg              Nyborg Kommune                    Rådhuset                          Torvet 1                          5800 Nyborg                                                         63311919Nyborg                                                      kommune@nyborg.dk                                                                                        000
001045105020061025085500000000199105281200200612220855Nørre Aaby                                                                                                                                                                                            Nørre Aaby                                                  nr-aaby@nr-aaby.dk                                                                                       000
001046105020070521125365518000200608280000000000000000Odense              Odense Kommune                    BorgerServiceCenter               Skulkenborg 1                     5000 Odense C                                                       65916062Odense                                                      odense@odense.dk                                                                                         000
001047105020061025085600000000199006291200200612220856Otterup                                                                                                                                                                                               Otterup                                                     otterup@otterup.dk                                                                                       000
001047305020061025085600000000199005211200200612220856Ringe                                                                                                                                                                                                 Ringe                                                       ringe@ringe.dk                                                                                           000
001047505020061025085700000000199006291200200612220856Rudkøbing                                                                                                                                                                                             Rudkøbing                                                   post@rudkom.dk                                                                                           000
001047705020061025085700000000199005211200200612220857Ryslinge                                                                                                                                                                                              Ryslinge                                                    raadhuset@ryslinge.dk                                                                                    000
001047905020070425103062233000200704250000000000000000Svendborg           Svendborg Kommune                 Folkeregistret                    Ramsherred 5                      5700 Svendborg                                                      62233699Svendborg                                                   borgerservice@svendborg.dk                                                                               000
001048005020070716132264828282200706210000000000000000Nordfyns            Nordfyns Kommune                  Rådhuset                          Østergade 23                      5400 Bogense                                                        64828099Nordfyns                                                    post@nordfynskommune.dk                                                                                  000
001048105020061025085900000000199006291200200612220859Sydlangeland                                                                                                                                                                                          Sydlangeland                                                post@sydlangeland.dk                                                                                     000
001048205020111010130463516000200702210000000000000000Langeland           Langeland Kommune                 Fredensvej 1                      5900 Rudkøbing                                                                                        63516001Langeland                                                   post@langelandkommune.dk                                                                                 000
001048305020061025090000000000199006291200200612220859Søndersø                                                                                                                                                                                              Søndersø                                                    kommunen@sondersokom.dk                                                                                  000
001048505020061025090000000000199005211200200512220900Tommerup                                                                                                                                                                                              Tommerup                                                    raadhuset@tommerup.dk                                                                                    000
001048705020061025090100000000199006291200200612220900Tranekær                                                                                                                                                                                              Tranekær                                                    kommunen@tranekaer.dk                                                                                    000
001048905020061025090200000000199005211200200612220901Ullerslev                                                                                                                                                                                             Ullerslev                                                   kommune@ullerslev.dk                                                                                     000
001049105020061025090200000000199006291200200612220902Vissenbjerg                                                                                                                                                                                           Vissenbjerg                                                 raadhuset@vissenbjergkommune.dk                                                                          000
001049205020070105085763525000200508010000000000000000Ærø                 Ærø Kommune                       Statene 2                         5970 Ærøskøbing                                                                                       62521526Ærø                                                         post@aeroekommune.dk                                                                                     000
001049305020061025072800000000199005211200200512310000Ærøskøbing                                                                                                                                                                                            Ærøskøbing                                                  arre@arrekommune.dk                                                                                      000
001049505020061025090400000000199006291200200612220903Ørbæk                                                                                                                                                                                                 Ørbæk                                                       orbek-kommune@orbek.dk                                                                                   000
001049705020061025090400000000199101021200200612220904Årslev                                                                                                                                                                                                Årslev                                                      aarslev@aarslev.dk                                                                                       000
001049905020061025090500000000199105281200200612220904Aarup                                                                                                                                                                                                 Aarup                                                       aarupkommune@aarup.dk                                                                                    000
001050105020061025090500000000199101021200200612220905Augustenborg                                                                                                                                                                                          Augustenborg                                                radhuset@augustenborg.dk                                                                                 000
001050305020061025090600000000199006291200200612220905Bov                                                                                                                                                                                                   Bov                                                         raadhus@bovkommune.dk                                                                                    000
001050505020061025090600000000199005211200200612220906Bredebro                                                                                                                                                                                              Bredebro                                                    raadhus@bredebro.dk                                                                                      000
001050705020061025090600000000199006291200200612220906Broager                                                                                                                                                                                               Broager                                                     raadhuset@broager.dk                                                                                     000
001050905020061025090700000000199101021200200612220906Christiansfeld                                                                                                                                                                                        Christiansfeld                                              christiansfeld@christiansfeld.dk                                                                         000
001051005020111010102474343434200509120000000000000000Haderslev           Haderslev kommune                 Rådhuset                          Gåskærgade 26-28                  6100 Haderslev                                                      74340334Haderslev                                                   post@haderslev.dk                                                                                        000
001051105020061025090700000000199006291200200612220907Gram                                                                                                                                                                                                  Gram                                                        posr@gramkom.dk                                                                                          000
001051305020061025090800000000199101021200200612220907Gråsten                                                                                                                                                                                               Gråsten                                                     graasten.kommune@graasten.dk                                                                             000
001051505020070112111700000000199007051200200612220908Gl. Haderslev                                                                                                                                                                                         Haderslev (Gammel)                                          post@haderslev.dk                                                                                        000
001051705020061025091200000000199005211200200612220912Højer                                                                                                                                                                                                 Højer                                                       raadhuset@hoejer.dk                                                                                      000
001051905020061025091200000000199101021200200612220912Lundtoft                                                                                                                                                                                              Lundtoft                                                    info@lundtoft.dk                                                                                         000
001052105020061025091300000000199008141200200612220912Løgumkloster                                                                                                                                                                                          Løgumkloster                                                raadhuset@loegumkloster.dk                                                                               000
001052305020061025091300000000199006291200200612220913Nordborg                                                                                                                                                                                              Nordborg                                                    nordborg@nordborg.dk                                                                                     000
001052505020061025091400000000199006291200200612220913Nørre-Rangstrup                                                                                                                                                                                       Nørre-Rangstrup                                             post@nrkadmin.dk                                                                                         000
001052705020061025091400000000199005211200200612220914Rødding                                                                                                                                                                                               Rødding                                                     kommunen@roedding.dk                                                                                     000
001052905020061025091500000000199105271200200612220914Rødekro                                                                                                                                                                                               Rødekro                                                     epost@roedekro.dk                                                                                        000
001053005020070808110079727200200708080000000000000000Billund             Billund Kommune                   Jorden Rundt 1                    7200 Grindsted                                                                                        75322571Billund                                                     kommunen@billund.dk                                                                                      000
001053105020061025091700000000199005211200200612220916Skærbæk                                                                                                                                                                                               Skærbæk                                                     raadhus@6780.dk                                                                                          000
001053305020061025091700000000199101021200200612220917Sundeved                                                                                                                                                                                              Sundeved                                                    sundeved@sundeved.dk                                                                                     000
001053505020061025091700000000199005211200200612220917Sydals                                                                                                                                                                                                Sydals                                                      sydals.kommune@sydals.dk                                                                                 000
001053705020070112113200000000199005211200200612220917Gl. Sønderborg                                                                                                                                                                                        Sønderborg (Gammel)                                         raadhus@sonderborg.dk                                                                                    000
001053905020061025091800000000199005211200200612220918Tinglev                                                                                                                                                                                               Tinglev                                                     raadhuset@tinglev-kommune.dk                                                                             000
001054005020111010134288726400200509150000000000000000Sønderborg          Sønderborg Kommune                Rådhuset                          Rådhustorvet 10                   6400 Sønderborg                                                     88726402Sønderborg                                                  post@sonderborg.dk                                                                                       000
001054105020070112113300000000199006291200200612220922Gl. Tønder                                                                                                                                                                                            Tønder (Gammel)                                             toender@toender.dk                                                                                       000
001054305020061025092300000000199005211200200612220923Vojens                                                                                                                                                                                                Vojens                                                      vojens@vojens.dk                                                                                         000
